{
  "_format": "hh-sol-artifact-1",
  "contractName": "GovernorContract",
  "sourceName": "contracts/governanceStandards/GovernanceContract.sol",
  "abi": [
    {
      "inputs": [
        {
          "internalType": "contract IVotes",
          "name": "_token",
          "type": "address"
        },
        {
          "internalType": "contract TimelockController",
          "name": "_timelock",
          "type": "address"
        },
        {
          "internalType": "uint256",
          "name": "_votingDelay",
          "type": "uint256"
        },
        {
          "internalType": "uint256",
          "name": "_votingPeriod",
          "type": "uint256"
        },
        {
          "internalType": "uint256",
          "name": "_quorumPercentage",
          "type": "uint256"
        }
      ],
      "stateMutability": "nonpayable",
      "type": "constructor"
    },
    {
      "inputs": [],
      "name": "Empty",
      "type": "error"
    },
    {
      "anonymous": false,
      "inputs": [
        {
          "indexed": false,
          "internalType": "uint256",
          "name": "proposalId",
          "type": "uint256"
        }
      ],
      "name": "ProposalCanceled",
      "type": "event"
    },
    {
      "anonymous": false,
      "inputs": [
        {
          "indexed": false,
          "internalType": "uint256",
          "name": "proposalId",
          "type": "uint256"
        },
        {
          "indexed": false,
          "internalType": "address",
          "name": "proposer",
          "type": "address"
        },
        {
          "indexed": false,
          "internalType": "address[]",
          "name": "targets",
          "type": "address[]"
        },
        {
          "indexed": false,
          "internalType": "uint256[]",
          "name": "values",
          "type": "uint256[]"
        },
        {
          "indexed": false,
          "internalType": "string[]",
          "name": "signatures",
          "type": "string[]"
        },
        {
          "indexed": false,
          "internalType": "bytes[]",
          "name": "calldatas",
          "type": "bytes[]"
        },
        {
          "indexed": false,
          "internalType": "uint256",
          "name": "startBlock",
          "type": "uint256"
        },
        {
          "indexed": false,
          "internalType": "uint256",
          "name": "endBlock",
          "type": "uint256"
        },
        {
          "indexed": false,
          "internalType": "string",
          "name": "description",
          "type": "string"
        }
      ],
      "name": "ProposalCreated",
      "type": "event"
    },
    {
      "anonymous": false,
      "inputs": [
        {
          "indexed": false,
          "internalType": "uint256",
          "name": "proposalId",
          "type": "uint256"
        }
      ],
      "name": "ProposalExecuted",
      "type": "event"
    },
    {
      "anonymous": false,
      "inputs": [
        {
          "indexed": false,
          "internalType": "uint256",
          "name": "proposalId",
          "type": "uint256"
        },
        {
          "indexed": false,
          "internalType": "uint256",
          "name": "eta",
          "type": "uint256"
        }
      ],
      "name": "ProposalQueued",
      "type": "event"
    },
    {
      "anonymous": false,
      "inputs": [
        {
          "indexed": false,
          "internalType": "uint256",
          "name": "oldProposalThreshold",
          "type": "uint256"
        },
        {
          "indexed": false,
          "internalType": "uint256",
          "name": "newProposalThreshold",
          "type": "uint256"
        }
      ],
      "name": "ProposalThresholdSet",
      "type": "event"
    },
    {
      "anonymous": false,
      "inputs": [
        {
          "indexed": false,
          "internalType": "uint256",
          "name": "oldQuorumNumerator",
          "type": "uint256"
        },
        {
          "indexed": false,
          "internalType": "uint256",
          "name": "newQuorumNumerator",
          "type": "uint256"
        }
      ],
      "name": "QuorumNumeratorUpdated",
      "type": "event"
    },
    {
      "anonymous": false,
      "inputs": [
        {
          "indexed": false,
          "internalType": "address",
          "name": "oldTimelock",
          "type": "address"
        },
        {
          "indexed": false,
          "internalType": "address",
          "name": "newTimelock",
          "type": "address"
        }
      ],
      "name": "TimelockChange",
      "type": "event"
    },
    {
      "anonymous": false,
      "inputs": [
        {
          "indexed": true,
          "internalType": "address",
          "name": "voter",
          "type": "address"
        },
        {
          "indexed": false,
          "internalType": "uint256",
          "name": "proposalId",
          "type": "uint256"
        },
        {
          "indexed": false,
          "internalType": "uint8",
          "name": "support",
          "type": "uint8"
        },
        {
          "indexed": false,
          "internalType": "uint256",
          "name": "weight",
          "type": "uint256"
        },
        {
          "indexed": false,
          "internalType": "string",
          "name": "reason",
          "type": "string"
        }
      ],
      "name": "VoteCast",
      "type": "event"
    },
    {
      "anonymous": false,
      "inputs": [
        {
          "indexed": true,
          "internalType": "address",
          "name": "voter",
          "type": "address"
        },
        {
          "indexed": false,
          "internalType": "uint256",
          "name": "proposalId",
          "type": "uint256"
        },
        {
          "indexed": false,
          "internalType": "uint8",
          "name": "support",
          "type": "uint8"
        },
        {
          "indexed": false,
          "internalType": "uint256",
          "name": "weight",
          "type": "uint256"
        },
        {
          "indexed": false,
          "internalType": "string",
          "name": "reason",
          "type": "string"
        },
        {
          "indexed": false,
          "internalType": "bytes",
          "name": "params",
          "type": "bytes"
        }
      ],
      "name": "VoteCastWithParams",
      "type": "event"
    },
    {
      "anonymous": false,
      "inputs": [
        {
          "indexed": false,
          "internalType": "uint256",
          "name": "oldVotingDelay",
          "type": "uint256"
        },
        {
          "indexed": false,
          "internalType": "uint256",
          "name": "newVotingDelay",
          "type": "uint256"
        }
      ],
      "name": "VotingDelaySet",
      "type": "event"
    },
    {
      "anonymous": false,
      "inputs": [
        {
          "indexed": false,
          "internalType": "uint256",
          "name": "oldVotingPeriod",
          "type": "uint256"
        },
        {
          "indexed": false,
          "internalType": "uint256",
          "name": "newVotingPeriod",
          "type": "uint256"
        }
      ],
      "name": "VotingPeriodSet",
      "type": "event"
    },
    {
      "inputs": [],
      "name": "BALLOT_TYPEHASH",
      "outputs": [
        {
          "internalType": "bytes32",
          "name": "",
          "type": "bytes32"
        }
      ],
      "stateMutability": "view",
      "type": "function"
    },
    {
      "inputs": [],
      "name": "COUNTING_MODE",
      "outputs": [
        {
          "internalType": "string",
          "name": "",
          "type": "string"
        }
      ],
      "stateMutability": "pure",
      "type": "function"
    },
    {
      "inputs": [],
      "name": "EXTENDED_BALLOT_TYPEHASH",
      "outputs": [
        {
          "internalType": "bytes32",
          "name": "",
          "type": "bytes32"
        }
      ],
      "stateMutability": "view",
      "type": "function"
    },
    {
      "inputs": [
        {
          "internalType": "uint256",
          "name": "proposalId",
          "type": "uint256"
        },
        {
          "internalType": "uint8",
          "name": "support",
          "type": "uint8"
        }
      ],
      "name": "castVote",
      "outputs": [
        {
          "internalType": "uint256",
          "name": "",
          "type": "uint256"
        }
      ],
      "stateMutability": "nonpayable",
      "type": "function"
    },
    {
      "inputs": [
        {
          "internalType": "uint256",
          "name": "proposalId",
          "type": "uint256"
        },
        {
          "internalType": "uint8",
          "name": "support",
          "type": "uint8"
        },
        {
          "internalType": "uint8",
          "name": "v",
          "type": "uint8"
        },
        {
          "internalType": "bytes32",
          "name": "r",
          "type": "bytes32"
        },
        {
          "internalType": "bytes32",
          "name": "s",
          "type": "bytes32"
        }
      ],
      "name": "castVoteBySig",
      "outputs": [
        {
          "internalType": "uint256",
          "name": "",
          "type": "uint256"
        }
      ],
      "stateMutability": "nonpayable",
      "type": "function"
    },
    {
      "inputs": [
        {
          "internalType": "uint256",
          "name": "proposalId",
          "type": "uint256"
        },
        {
          "internalType": "uint8",
          "name": "support",
          "type": "uint8"
        },
        {
          "internalType": "string",
          "name": "reason",
          "type": "string"
        }
      ],
      "name": "castVoteWithReason",
      "outputs": [
        {
          "internalType": "uint256",
          "name": "",
          "type": "uint256"
        }
      ],
      "stateMutability": "nonpayable",
      "type": "function"
    },
    {
      "inputs": [
        {
          "internalType": "uint256",
          "name": "proposalId",
          "type": "uint256"
        },
        {
          "internalType": "uint8",
          "name": "support",
          "type": "uint8"
        },
        {
          "internalType": "string",
          "name": "reason",
          "type": "string"
        },
        {
          "internalType": "bytes",
          "name": "params",
          "type": "bytes"
        }
      ],
      "name": "castVoteWithReasonAndParams",
      "outputs": [
        {
          "internalType": "uint256",
          "name": "",
          "type": "uint256"
        }
      ],
      "stateMutability": "nonpayable",
      "type": "function"
    },
    {
      "inputs": [
        {
          "internalType": "uint256",
          "name": "proposalId",
          "type": "uint256"
        },
        {
          "internalType": "uint8",
          "name": "support",
          "type": "uint8"
        },
        {
          "internalType": "string",
          "name": "reason",
          "type": "string"
        },
        {
          "internalType": "bytes",
          "name": "params",
          "type": "bytes"
        },
        {
          "internalType": "uint8",
          "name": "v",
          "type": "uint8"
        },
        {
          "internalType": "bytes32",
          "name": "r",
          "type": "bytes32"
        },
        {
          "internalType": "bytes32",
          "name": "s",
          "type": "bytes32"
        }
      ],
      "name": "castVoteWithReasonAndParamsBySig",
      "outputs": [
        {
          "internalType": "uint256",
          "name": "",
          "type": "uint256"
        }
      ],
      "stateMutability": "nonpayable",
      "type": "function"
    },
    {
      "inputs": [
        {
          "internalType": "address[]",
          "name": "targets",
          "type": "address[]"
        },
        {
          "internalType": "uint256[]",
          "name": "values",
          "type": "uint256[]"
        },
        {
          "internalType": "bytes[]",
          "name": "calldatas",
          "type": "bytes[]"
        },
        {
          "internalType": "bytes32",
          "name": "descriptionHash",
          "type": "bytes32"
        }
      ],
      "name": "execute",
      "outputs": [
        {
          "internalType": "uint256",
          "name": "",
          "type": "uint256"
        }
      ],
      "stateMutability": "payable",
      "type": "function"
    },
    {
      "inputs": [
        {
          "internalType": "address",
          "name": "account",
          "type": "address"
        },
        {
          "internalType": "uint256",
          "name": "blockNumber",
          "type": "uint256"
        }
      ],
      "name": "getVotes",
      "outputs": [
        {
          "internalType": "uint256",
          "name": "",
          "type": "uint256"
        }
      ],
      "stateMutability": "view",
      "type": "function"
    },
    {
      "inputs": [
        {
          "internalType": "address",
          "name": "account",
          "type": "address"
        },
        {
          "internalType": "uint256",
          "name": "blockNumber",
          "type": "uint256"
        },
        {
          "internalType": "bytes",
          "name": "params",
          "type": "bytes"
        }
      ],
      "name": "getVotesWithParams",
      "outputs": [
        {
          "internalType": "uint256",
          "name": "",
          "type": "uint256"
        }
      ],
      "stateMutability": "view",
      "type": "function"
    },
    {
      "inputs": [
        {
          "internalType": "uint256",
          "name": "proposalId",
          "type": "uint256"
        },
        {
          "internalType": "address",
          "name": "account",
          "type": "address"
        }
      ],
      "name": "hasVoted",
      "outputs": [
        {
          "internalType": "bool",
          "name": "",
          "type": "bool"
        }
      ],
      "stateMutability": "view",
      "type": "function"
    },
    {
      "inputs": [
        {
          "internalType": "address[]",
          "name": "targets",
          "type": "address[]"
        },
        {
          "internalType": "uint256[]",
          "name": "values",
          "type": "uint256[]"
        },
        {
          "internalType": "bytes[]",
          "name": "calldatas",
          "type": "bytes[]"
        },
        {
          "internalType": "bytes32",
          "name": "descriptionHash",
          "type": "bytes32"
        }
      ],
      "name": "hashProposal",
      "outputs": [
        {
          "internalType": "uint256",
          "name": "",
          "type": "uint256"
        }
      ],
      "stateMutability": "pure",
      "type": "function"
    },
    {
      "inputs": [],
      "name": "name",
      "outputs": [
        {
          "internalType": "string",
          "name": "",
          "type": "string"
        }
      ],
      "stateMutability": "view",
      "type": "function"
    },
    {
      "inputs": [
        {
          "internalType": "address",
          "name": "",
          "type": "address"
        },
        {
          "internalType": "address",
          "name": "",
          "type": "address"
        },
        {
          "internalType": "uint256[]",
          "name": "",
          "type": "uint256[]"
        },
        {
          "internalType": "uint256[]",
          "name": "",
          "type": "uint256[]"
        },
        {
          "internalType": "bytes",
          "name": "",
          "type": "bytes"
        }
      ],
      "name": "onERC1155BatchReceived",
      "outputs": [
        {
          "internalType": "bytes4",
          "name": "",
          "type": "bytes4"
        }
      ],
      "stateMutability": "nonpayable",
      "type": "function"
    },
    {
      "inputs": [
        {
          "internalType": "address",
          "name": "",
          "type": "address"
        },
        {
          "internalType": "address",
          "name": "",
          "type": "address"
        },
        {
          "internalType": "uint256",
          "name": "",
          "type": "uint256"
        },
        {
          "internalType": "uint256",
          "name": "",
          "type": "uint256"
        },
        {
          "internalType": "bytes",
          "name": "",
          "type": "bytes"
        }
      ],
      "name": "onERC1155Received",
      "outputs": [
        {
          "internalType": "bytes4",
          "name": "",
          "type": "bytes4"
        }
      ],
      "stateMutability": "nonpayable",
      "type": "function"
    },
    {
      "inputs": [
        {
          "internalType": "address",
          "name": "",
          "type": "address"
        },
        {
          "internalType": "address",
          "name": "",
          "type": "address"
        },
        {
          "internalType": "uint256",
          "name": "",
          "type": "uint256"
        },
        {
          "internalType": "bytes",
          "name": "",
          "type": "bytes"
        }
      ],
      "name": "onERC721Received",
      "outputs": [
        {
          "internalType": "bytes4",
          "name": "",
          "type": "bytes4"
        }
      ],
      "stateMutability": "nonpayable",
      "type": "function"
    },
    {
      "inputs": [
        {
          "internalType": "uint256",
          "name": "proposalId",
          "type": "uint256"
        }
      ],
      "name": "proposalDeadline",
      "outputs": [
        {
          "internalType": "uint256",
          "name": "",
          "type": "uint256"
        }
      ],
      "stateMutability": "view",
      "type": "function"
    },
    {
      "inputs": [
        {
          "internalType": "uint256",
          "name": "proposalId",
          "type": "uint256"
        }
      ],
      "name": "proposalEta",
      "outputs": [
        {
          "internalType": "uint256",
          "name": "",
          "type": "uint256"
        }
      ],
      "stateMutability": "view",
      "type": "function"
    },
    {
      "inputs": [
        {
          "internalType": "uint256",
          "name": "proposalId",
          "type": "uint256"
        }
      ],
      "name": "proposalSnapshot",
      "outputs": [
        {
          "internalType": "uint256",
          "name": "",
          "type": "uint256"
        }
      ],
      "stateMutability": "view",
      "type": "function"
    },
    {
      "inputs": [],
      "name": "proposalThreshold",
      "outputs": [
        {
          "internalType": "uint256",
          "name": "",
          "type": "uint256"
        }
      ],
      "stateMutability": "view",
      "type": "function"
    },
    {
      "inputs": [
        {
          "internalType": "uint256",
          "name": "proposalId",
          "type": "uint256"
        }
      ],
      "name": "proposalVotes",
      "outputs": [
        {
          "internalType": "uint256",
          "name": "againstVotes",
          "type": "uint256"
        },
        {
          "internalType": "uint256",
          "name": "forVotes",
          "type": "uint256"
        },
        {
          "internalType": "uint256",
          "name": "abstainVotes",
          "type": "uint256"
        }
      ],
      "stateMutability": "view",
      "type": "function"
    },
    {
      "inputs": [
        {
          "internalType": "address[]",
          "name": "targets",
          "type": "address[]"
        },
        {
          "internalType": "uint256[]",
          "name": "values",
          "type": "uint256[]"
        },
        {
          "internalType": "bytes[]",
          "name": "calldatas",
          "type": "bytes[]"
        },
        {
          "internalType": "string",
          "name": "description",
          "type": "string"
        }
      ],
      "name": "propose",
      "outputs": [
        {
          "internalType": "uint256",
          "name": "",
          "type": "uint256"
        }
      ],
      "stateMutability": "nonpayable",
      "type": "function"
    },
    {
      "inputs": [
        {
          "internalType": "address[]",
          "name": "targets",
          "type": "address[]"
        },
        {
          "internalType": "uint256[]",
          "name": "values",
          "type": "uint256[]"
        },
        {
          "internalType": "bytes[]",
          "name": "calldatas",
          "type": "bytes[]"
        },
        {
          "internalType": "bytes32",
          "name": "descriptionHash",
          "type": "bytes32"
        }
      ],
      "name": "queue",
      "outputs": [
        {
          "internalType": "uint256",
          "name": "",
          "type": "uint256"
        }
      ],
      "stateMutability": "nonpayable",
      "type": "function"
    },
    {
      "inputs": [
        {
          "internalType": "uint256",
          "name": "blockNumber",
          "type": "uint256"
        }
      ],
      "name": "quorum",
      "outputs": [
        {
          "internalType": "uint256",
          "name": "",
          "type": "uint256"
        }
      ],
      "stateMutability": "view",
      "type": "function"
    },
    {
      "inputs": [],
      "name": "quorumDenominator",
      "outputs": [
        {
          "internalType": "uint256",
          "name": "",
          "type": "uint256"
        }
      ],
      "stateMutability": "view",
      "type": "function"
    },
    {
      "inputs": [
        {
          "internalType": "uint256",
          "name": "blockNumber",
          "type": "uint256"
        }
      ],
      "name": "quorumNumerator",
      "outputs": [
        {
          "internalType": "uint256",
          "name": "",
          "type": "uint256"
        }
      ],
      "stateMutability": "view",
      "type": "function"
    },
    {
      "inputs": [],
      "name": "quorumNumerator",
      "outputs": [
        {
          "internalType": "uint256",
          "name": "",
          "type": "uint256"
        }
      ],
      "stateMutability": "view",
      "type": "function"
    },
    {
      "inputs": [
        {
          "internalType": "address",
          "name": "target",
          "type": "address"
        },
        {
          "internalType": "uint256",
          "name": "value",
          "type": "uint256"
        },
        {
          "internalType": "bytes",
          "name": "data",
          "type": "bytes"
        }
      ],
      "name": "relay",
      "outputs": [],
      "stateMutability": "payable",
      "type": "function"
    },
    {
      "inputs": [
        {
          "internalType": "uint256",
          "name": "newProposalThreshold",
          "type": "uint256"
        }
      ],
      "name": "setProposalThreshold",
      "outputs": [],
      "stateMutability": "nonpayable",
      "type": "function"
    },
    {
      "inputs": [
        {
          "internalType": "uint256",
          "name": "newVotingDelay",
          "type": "uint256"
        }
      ],
      "name": "setVotingDelay",
      "outputs": [],
      "stateMutability": "nonpayable",
      "type": "function"
    },
    {
      "inputs": [
        {
          "internalType": "uint256",
          "name": "newVotingPeriod",
          "type": "uint256"
        }
      ],
      "name": "setVotingPeriod",
      "outputs": [],
      "stateMutability": "nonpayable",
      "type": "function"
    },
    {
      "inputs": [
        {
          "internalType": "uint256",
          "name": "proposalId",
          "type": "uint256"
        }
      ],
      "name": "state",
      "outputs": [
        {
          "internalType": "enum IGovernor.ProposalState",
          "name": "",
          "type": "uint8"
        }
      ],
      "stateMutability": "view",
      "type": "function"
    },
    {
      "inputs": [
        {
          "internalType": "bytes4",
          "name": "interfaceId",
          "type": "bytes4"
        }
      ],
      "name": "supportsInterface",
      "outputs": [
        {
          "internalType": "bool",
          "name": "",
          "type": "bool"
        }
      ],
      "stateMutability": "view",
      "type": "function"
    },
    {
      "inputs": [],
      "name": "timelock",
      "outputs": [
        {
          "internalType": "address",
          "name": "",
          "type": "address"
        }
      ],
      "stateMutability": "view",
      "type": "function"
    },
    {
      "inputs": [],
      "name": "token",
      "outputs": [
        {
          "internalType": "contract IVotes",
          "name": "",
          "type": "address"
        }
      ],
      "stateMutability": "view",
      "type": "function"
    },
    {
      "inputs": [
        {
          "internalType": "uint256",
          "name": "newQuorumNumerator",
          "type": "uint256"
        }
      ],
      "name": "updateQuorumNumerator",
      "outputs": [],
      "stateMutability": "nonpayable",
      "type": "function"
    },
    {
      "inputs": [
        {
          "internalType": "contract TimelockController",
          "name": "newTimelock",
          "type": "address"
        }
      ],
      "name": "updateTimelock",
      "outputs": [],
      "stateMutability": "nonpayable",
      "type": "function"
    },
    {
      "inputs": [],
      "name": "version",
      "outputs": [
        {
          "internalType": "string",
          "name": "",
          "type": "string"
        }
      ],
      "stateMutability": "view",
      "type": "function"
    },
    {
      "inputs": [],
      "name": "votingDelay",
      "outputs": [
        {
          "internalType": "uint256",
          "name": "",
          "type": "uint256"
        }
      ],
      "stateMutability": "view",
      "type": "function"
    },
    {
      "inputs": [],
      "name": "votingPeriod",
      "outputs": [
        {
          "internalType": "uint256",
          "name": "",
          "type": "uint256"
        }
      ],
      "stateMutability": "view",
      "type": "function"
    },
    {
      "stateMutability": "payable",
      "type": "receive"
    }
  ],
  "bytecode": "0x6101606040523480156200001257600080fd5b5060405162004a5e38038062004a5e8339810160408190526200003591620008b6565b838186858560006040518060400160405280601081526020016f11dbdd995c9b9bdc90dbdb9d1c9858dd60821b81525080620000766200017360201b60201c565b815160208084019190912082518383012060e08290526101008190524660a0818152604080517f8b73c3c69bb8fe3d512ecc4cf759cc79239f7b179b0ffacaa9a75d522b39400f81880181905281830187905260608201869052608082019490945230818401528151808203909301835260c00190528051940193909320919290916080523060c05261012052505082516200011c925060009150602084019062000801565b506200012a9050836200018e565b6200013582620001cf565b620001408162000276565b5050506001600160a01b0316610140526200015b81620002b7565b5062000167816200042f565b50505050505062000971565b6040805180820190915260018152603160f81b602082015290565b60045460408051918252602082018390527fc565b045403dc03c2eea82b81a0465edad9e2e7fc4d97e11421c209da93d7a93910160405180910390a1600455565b60008111620002355760405162461bcd60e51b815260206004820152602760248201527f476f7665726e6f7253657474696e67733a20766f74696e6720706572696f6420604482015266746f6f206c6f7760c81b60648201526084015b60405180910390fd5b60055460408051918252602082018390527f7e3f7f0708a84de9203036abaa450dccc85ad5ff52f78c170f3edb55cf5e8828910160405180910390a1600555565b60065460408051918252602082018390527fccb45da8d5717e6c4544694297c4ba5cf151d455c9bb0ed4fc7a38411bc05461910160405180910390a1600655565b60648111156200033c5760405162461bcd60e51b815260206004820152604360248201527f476f7665726e6f72566f74657351756f72756d4672616374696f6e3a2071756f60448201527f72756d4e756d657261746f72206f7665722071756f72756d44656e6f6d696e616064820152623a37b960e91b608482015260a4016200022c565b60006200034862000498565b905080158015906200035a5750600954155b15620003d55760096000016040518060400160405280600063ffffffff1681526020016200039384620004d060201b620017ce1760201c565b6001600160e01b0390811690915282546001810184556000938452602093849020835194909301519091166401000000000263ffffffff909316929092179101555b620003f08260096200053f60201b620018511790919060201c565b505060408051828152602081018490527f0553476bf02ef2726e8ce5ced78d63e26e602e4a2257b1f559418e24b4633997910160405180910390a15050565b600a54604080516001600160a01b03928316815291831660208301527f08f74ea46ef7894f65eabfb5e6e695de773a000b47c529ab559178069b226401910160405180910390a1600a80546001600160a01b0319166001600160a01b0392909216919091179055565b60095460009015620004c957620004bb60096200059260201b620018871760201c565b6001600160e01b0316905090565b5060085490565b60006001600160e01b038211156200053b5760405162461bcd60e51b815260206004820152602760248201527f53616665436173743a2076616c756520646f65736e27742066697420696e20326044820152663234206269747360c81b60648201526084016200022c565b5090565b6000806200057c846000016200056043620005e060201b620018c61760201c565b6200057686620004d060201b620017ce1760201c565b62000647565b6001600160e01b03918216969116945092505050565b80546000908015620005d657620005be83620005b06001846200090e565b600091825260209091200190565b5464010000000090046001600160e01b0316620005d9565b60005b9392505050565b600063ffffffff8211156200053b5760405162461bcd60e51b815260206004820152602660248201527f53616665436173743a2076616c756520646f65736e27742066697420696e203360448201526532206269747360d01b60648201526084016200022c565b825460009081908015620007a35760006200066987620005b06001856200090e565b60408051808201909152905463ffffffff8082168084526401000000009092046001600160e01b031660208401529192509087161015620006ed5760405162461bcd60e51b815260206004820152601760248201527f436865636b706f696e743a20696e76616c6964206b657900000000000000000060448201526064016200022c565b8563ffffffff16816000015163ffffffff1614156200074257846200071988620005b06001866200090e565b80546001600160e01b03929092166401000000000263ffffffff90921691909117905562000792565b6040805180820190915263ffffffff80881682526001600160e01b0380881660208085019182528b54600181018d5560008d81529190912094519151909216640100000000029216919091179101555b602001519250839150620007f99050565b50506040805180820190915263ffffffff80851682526001600160e01b0380851660208085019182528854600181018a5560008a8152918220955192519093166401000000000291909316179201919091559050815b935093915050565b8280546200080f9062000934565b90600052602060002090601f0160209004810192826200083357600085556200087e565b82601f106200084e57805160ff19168380011785556200087e565b828001600101855582156200087e579182015b828111156200087e57825182559160200191906001019062000861565b506200053b9291505b808211156200053b576000815560010162000887565b6001600160a01b0381168114620008b357600080fd5b50565b600080600080600060a08688031215620008cf57600080fd5b8551620008dc816200089d565b6020870151909550620008ef816200089d565b6040870151606088015160809098015196999198509695945092505050565b6000828210156200092f57634e487b7160e01b600052601160045260246000fd5b500390565b600181811c908216806200094957607f821691505b602082108114156200096b57634e487b7160e01b600052602260045260246000fd5b50919050565b60805160a05160c05160e051610100516101205161014051614084620009da60003960008181610950015281816124da015261272401526000612ac101526000612b1001526000612aeb01526000612a4401526000612a6e01526000612a9801526140846000f3fe6080604052600436106102ca5760003560e01c80637b3c71d311610179578063c28bc2fa116100d6578063ea0217cf1161008a578063f23a6e6111610064578063f23a6e61146108d9578063f8ce560a1461091e578063fc0c546a1461093e57600080fd5b8063ea0217cf14610879578063eb9019d414610899578063ece40cc1146108b957600080fd5b8063d33219b4116100bb578063d33219b4146107cd578063dd4e2ba5146107ff578063deaaa7cc1461084557600080fd5b8063c28bc2fa1461079a578063c59057e4146107ad57600080fd5b8063a890c9101161012d578063b58131b011610112578063b58131b014610720578063bc197c8114610735578063c01f9e371461077a57600080fd5b8063a890c910146106e0578063ab58fb8e1461070057600080fd5b806397c3d3341161015e57806397c3d334146106975780639a802a6d146106ab578063a7713a70146106cb57600080fd5b80637b3c71d3146106575780637d5e81e21461067757600080fd5b80633932abb11161022757806354fd4d50116101db5780635f398a14116101c05780635f398a14146105f757806360c4247f1461061757806370b0f6601461063757600080fd5b806354fd4d501461059157806356781388146105d757600080fd5b80633e4f49e61161020c5780633e4f49e6146104c557806343859632146104f2578063544ffc9c1461053c57600080fd5b80633932abb1146104905780633bccf4fd146104a557600080fd5b8063150b7a021161027e5780632656227d116102635780632656227d146104295780632d63f6931461043c5780632fe3e2611461045c57600080fd5b8063150b7a02146103ac578063160cbed71461040957600080fd5b806303420181116102af578063034201811461034a57806306f3f9e61461036a57806306fdde031461038a57600080fd5b806301ffc9a7146102f257806302a251a31461032757600080fd5b366102ed57306102d8610972565b6001600160a01b0316146102eb57600080fd5b005b600080fd5b3480156102fe57600080fd5b5061031261030d366004613260565b61098b565b60405190151581526020015b60405180910390f35b34801561033357600080fd5b5061033c61099c565b60405190815260200161031e565b34801561035657600080fd5b5061033c6103653660046133a1565b6109a7565b34801561037657600080fd5b506102eb610385366004613448565b610a9f565b34801561039657600080fd5b5061039f610b63565b60405161031e91906134ae565b3480156103b857600080fd5b506103f06103c73660046134d6565b7f150b7a0200000000000000000000000000000000000000000000000000000000949350505050565b6040516001600160e01b0319909116815260200161031e565b34801561041557600080fd5b5061033c6104243660046136b5565b610bf5565b61033c6104373660046136b5565b610e98565b34801561044857600080fd5b5061033c610457366004613448565b610fbf565b34801561046857600080fd5b5061033c7fb3b3f3b703cd84ce352197dcff232b1b5d3cfb2025ce47cf04742d0651f1af8881565b34801561049c57600080fd5b5061033c610ff8565b3480156104b157600080fd5b5061033c6104c0366004613745565b611003565b3480156104d157600080fd5b506104e56104e0366004613448565b611079565b60405161031e91906137a9565b3480156104fe57600080fd5b5061031261050d3660046137d1565b60008281526007602090815260408083206001600160a01b038516845260030190915290205460ff1692915050565b34801561054857600080fd5b50610576610557366004613448565b6000908152600760205260409020805460018201546002909201549092565b6040805193845260208401929092529082015260600161031e565b34801561059d57600080fd5b5060408051808201909152600181527f3100000000000000000000000000000000000000000000000000000000000000602082015261039f565b3480156105e357600080fd5b5061033c6105f2366004613801565b611084565b34801561060357600080fd5b5061033c61061236600461382d565b6110ad565b34801561062357600080fd5b5061033c610632366004613448565b6110f7565b34801561064357600080fd5b506102eb610652366004613448565b61118d565b34801561066357600080fd5b5061033c6106723660046138b1565b611249565b34801561068357600080fd5b5061033c61069236600461390b565b61129b565b3480156106a357600080fd5b50606461033c565b3480156106b757600080fd5b5061033c6106c63660046139c0565b6112b2565b3480156106d757600080fd5b5061033c6112c9565b3480156106ec57600080fd5b506102eb6106fb366004613a19565b6112f3565b34801561070c57600080fd5b5061033c61071b366004613448565b6113af565b34801561072c57600080fd5b5061033c611471565b34801561074157600080fd5b506103f0610750366004613a36565b7fbc197c810000000000000000000000000000000000000000000000000000000095945050505050565b34801561078657600080fd5b5061033c610795366004613448565b61147c565b6102eb6107a8366004613aca565b6114ac565b3480156107b957600080fd5b5061033c6107c83660046136b5565b6115f0565b3480156107d957600080fd5b50600a546001600160a01b03165b6040516001600160a01b03909116815260200161031e565b34801561080b57600080fd5b506040805180820190915260208082527f737570706f72743d627261766f2671756f72756d3d666f722c6162737461696e9082015261039f565b34801561085157600080fd5b5061033c7f150214d74d59b7d1e90c73fc22ef3d991dd0a76b046543d4d80ab92d2a50328f81565b34801561088557600080fd5b506102eb610894366004613448565b61162a565b3480156108a557600080fd5b5061033c6108b4366004613b0e565b6116e6565b3480156108c557600080fd5b506102eb6108d4366004613448565b611707565b3480156108e557600080fd5b506103f06108f4366004613b3a565b7ff23a6e610000000000000000000000000000000000000000000000000000000095945050505050565b34801561092a57600080fd5b5061033c610939366004613448565b6117c3565b34801561094a57600080fd5b506107e77f000000000000000000000000000000000000000000000000000000000000000081565b6000610986600a546001600160a01b031690565b905090565b600061099682611942565b92915050565b600061098660055490565b600080610a4b610a437fb3b3f3b703cd84ce352197dcff232b1b5d3cfb2025ce47cf04742d0651f1af888c8c8c8c6040516109e3929190613ba3565b60405180910390208b80519060200120604051602001610a28959493929190948552602085019390935260ff9190911660408401526060830152608082015260a00190565b60405160208183030381529060405280519060200120611980565b8686866119e9565b9050610a918a828b8b8b8080601f0160208091040260200160405190810160405280939291908181526020018383808284376000920191909152508d9250611a07915050565b9a9950505050505050505050565b610aa7610972565b6001600160a01b0316336001600160a01b031614610b0c5760405162461bcd60e51b815260206004820152601860248201527f476f7665726e6f723a206f6e6c79476f7665726e616e6365000000000000000060448201526064015b60405180910390fd5b30610b15610972565b6001600160a01b031614610b575760008036604051610b35929190613ba3565b604051809103902090505b80610b4b6002611b84565b14610b5557610b40565b505b610b6081611c34565b50565b606060008054610b7290613bb3565b80601f0160208091040260200160405190810160405280929190818152602001828054610b9e90613bb3565b8015610beb5780601f10610bc057610100808354040283529160200191610beb565b820191906000526020600020905b815481529060010190602001808311610bce57829003601f168201915b5050505050905090565b600080610c04868686866115f0565b90506004610c1182611079565b6007811115610c2257610c22613793565b14610c795760405162461bcd60e51b815260206004820152602160248201527f476f7665726e6f723a2070726f706f73616c206e6f74207375636365737366756044820152601b60fa1b6064820152608401610b03565b600a54604080517ff27a0c9200000000000000000000000000000000000000000000000000000000815290516000926001600160a01b03169163f27a0c92916004808301926020929190829003018186803b158015610cd757600080fd5b505afa158015610ceb573d6000803e3d6000fd5b505050506040513d601f19601f82011682018060405250810190610d0f9190613bee565b600a546040517fb1c5f4270000000000000000000000000000000000000000000000000000000081529192506001600160a01b03169063b1c5f42790610d62908a908a908a906000908b90600401613cd0565b60206040518083038186803b158015610d7a57600080fd5b505afa158015610d8e573d6000803e3d6000fd5b505050506040513d601f19601f82011682018060405250810190610db29190613bee565b6000838152600b602052604080822092909255600a5491517f8f2a0bb00000000000000000000000000000000000000000000000000000000081526001600160a01b0390921691638f2a0bb091610e16918b918b918b91908b908990600401613d1e565b600060405180830381600087803b158015610e3057600080fd5b505af1158015610e44573d6000803e3d6000fd5b505050507f9a2e42fd6722813d69113e7d0079d3d940171428df7373df9c7f7617cfda2892828242610e769190613d8c565b6040805192835260208301919091520160405180910390a15095945050505050565b600080610ea7868686866115f0565b90506000610eb482611079565b90506004816007811115610eca57610eca613793565b1480610ee757506005816007811115610ee557610ee5613793565b145b610f3d5760405162461bcd60e51b815260206004820152602160248201527f476f7665726e6f723a2070726f706f73616c206e6f74207375636365737366756044820152601b60fa1b6064820152608401610b03565b600082815260016020818152604092839020600201805460ff191690921790915590518381527f712ae1383f79ac853f8d882153778e0260ef8f03b504e2866e0593e04d2b291f910160405180910390a1610f9b8288888888611d9b565b610fa88288888888611e3e565b610fb58288888888611e4b565b5095945050505050565b600081815260016020908152604080832081519283019091525467ffffffffffffffff16908190525b67ffffffffffffffff1692915050565b600061098660045490565b604080517f150214d74d59b7d1e90c73fc22ef3d991dd0a76b046543d4d80ab92d2a50328f602082015290810186905260ff85166060820152600090819061105190610a4390608001610a28565b905061106e87828860405180602001604052806000815250611e84565b979650505050505050565b600061099682611ea7565b6000803390506110a584828560405180602001604052806000815250611e84565b949350505050565b60008033905061106e87828888888080601f0160208091040260200160405190810160405280939291908181526020018383808284376000920191909152508a9250611a07915050565b6009546000908061110c575050600854919050565b6000600961111b600184613da4565b8154811061112b5761112b613dbb565b60009182526020918290206040805180820190915291015463ffffffff81168083526401000000009091046001600160e01b0316928201929092529150841061118257602001516001600160e01b03169392505050565b6110a5600985612041565b611195610972565b6001600160a01b0316336001600160a01b0316146111f55760405162461bcd60e51b815260206004820152601860248201527f476f7665726e6f723a206f6e6c79476f7665726e616e636500000000000000006044820152606401610b03565b306111fe610972565b6001600160a01b031614611240576000803660405161121e929190613ba3565b604051809103902090505b806112346002611b84565b1461123e57611229565b505b610b60816120f4565b60008033905061129186828787878080601f016020809104026020016040519081016040528093929190818152602001838380828437600092019190915250611e8492505050565b9695505050505050565b60006112a985858585612135565b95945050505050565b60006112bf848484612498565b90505b9392505050565b600954600090156112ec576112de6009611887565b6001600160e01b0316905090565b5060085490565b6112fb610972565b6001600160a01b0316336001600160a01b03161461135b5760405162461bcd60e51b815260206004820152601860248201527f476f7665726e6f723a206f6e6c79476f7665726e616e636500000000000000006044820152606401610b03565b30611364610972565b6001600160a01b0316146113a65760008036604051611384929190613ba3565b604051809103902090505b8061139a6002611b84565b146113a45761138f565b505b610b6081612556565b600a546000828152600b60205260408082205490517fd45c44350000000000000000000000000000000000000000000000000000000081526004810191909152909182916001600160a01b039091169063d45c44359060240160206040518083038186803b15801561142057600080fd5b505afa158015611434573d6000803e3d6000fd5b505050506040513d601f19601f820116820180604052508101906114589190613bee565b90508060011461146857806112c2565b60009392505050565b600061098660065490565b600081815260016020818152604080842081519283019091529091015467ffffffffffffffff1690819052610fe8565b6114b4610972565b6001600160a01b0316336001600160a01b0316146115145760405162461bcd60e51b815260206004820152601860248201527f476f7665726e6f723a206f6e6c79476f7665726e616e636500000000000000006044820152606401610b03565b3061151d610972565b6001600160a01b03161461155f576000803660405161153d929190613ba3565b604051809103902090505b806115536002611b84565b1461155d57611548565b505b600080856001600160a01b031685858560405161157d929190613ba3565b60006040518083038185875af1925050503d80600081146115ba576040519150601f19603f3d011682016040523d82523d6000602084013e6115bf565b606091505b50915091506115e78282604051806060016040528060288152602001614027602891396125d7565b50505050505050565b6000848484846040516020016116099493929190613dd1565b60408051601f19818403018152919052805160209091012095945050505050565b611632610972565b6001600160a01b0316336001600160a01b0316146116925760405162461bcd60e51b815260206004820152601860248201527f476f7665726e6f723a206f6e6c79476f7665726e616e636500000000000000006044820152606401610b03565b3061169b610972565b6001600160a01b0316146116dd57600080366040516116bb929190613ba3565b604051809103902090505b806116d16002611b84565b146116db576116c6565b505b610b60816125f0565b60006112c2838361170260408051602081019091526000815290565b612498565b61170f610972565b6001600160a01b0316336001600160a01b03161461176f5760405162461bcd60e51b815260206004820152601860248201527f476f7665726e6f723a206f6e6c79476f7665726e616e636500000000000000006044820152606401610b03565b30611778610972565b6001600160a01b0316146117ba5760008036604051611798929190613ba3565b604051809103902090505b806117ae6002611b84565b146117b8576117a3565b505b610b60816126a7565b6000610996826126e8565b60006001600160e01b0382111561184d5760405162461bcd60e51b815260206004820152602760248201527f53616665436173743a2076616c756520646f65736e27742066697420696e203260448201527f32342062697473000000000000000000000000000000000000000000000000006064820152608401610b03565b5090565b60008061186f84611861436118c6565b61186a866117ce565b6127ba565b6001600160e01b0391821693501690505b9250929050565b80546000908015611468576118af836118a1600184613da4565b600091825260209091200190565b5464010000000090046001600160e01b03166112c2565b600063ffffffff82111561184d5760405162461bcd60e51b815260206004820152602660248201527f53616665436173743a2076616c756520646f65736e27742066697420696e203360448201527f32206269747300000000000000000000000000000000000000000000000000006064820152608401610b03565b60006001600160e01b031982167f6e665ced000000000000000000000000000000000000000000000000000000001480610996575061099682612968565b600061099661198d612a37565b836040517f19010000000000000000000000000000000000000000000000000000000000006020820152602281018390526042810182905260009060620160405160208183030381529060405280519060200120905092915050565b60008060006119fa87878787612b5e565b91509150610fb581612c22565b6000858152600160208190526040822090611a2188611079565b6007811115611a3257611a32613793565b14611aa55760405162461bcd60e51b815260206004820152602360248201527f476f7665726e6f723a20766f7465206e6f742063757272656e746c792061637460448201527f69766500000000000000000000000000000000000000000000000000000000006064820152608401610b03565b6040805160208101909152815467ffffffffffffffff1690819052600090611acf90889086612498565b9050611ade8888888488612d8b565b8351611b3057866001600160a01b03167fb8e138887d0aa13bab447e82de9d5c1777041ecd21ca36ba824ff1e6c07ddda489888489604051611b239493929190613e1c565b60405180910390a261106e565b866001600160a01b03167fe2babfbac5889a709b63bb7f598b324e08bc5a4fb9ec647fb3cbc9ec07eb87128988848989604051611b71959493929190613e44565b60405180910390a2979650505050505050565b6000611b9f8254600f81810b600160801b909204900b131590565b15611bd6576040517f3db2a12a00000000000000000000000000000000000000000000000000000000815260040160405180910390fd5b508054600f0b6000818152600180840160205260408220805492905583547fffffffffffffffffffffffffffffffff000000000000000000000000000000001692016fffffffffffffffffffffffffffffffff169190911790915590565b6064811115611cd15760405162461bcd60e51b815260206004820152604360248201527f476f7665726e6f72566f74657351756f72756d4672616374696f6e3a2071756f60448201527f72756d4e756d657261746f72206f7665722071756f72756d44656e6f6d696e6160648201527f746f720000000000000000000000000000000000000000000000000000000000608482015260a401610b03565b6000611cdb6112c9565b90508015801590611cec5750600954155b15611d5157604080518082019091526000815260099060208101611d0f846117ce565b6001600160e01b0390811690915282546001810184556000938452602093849020835194909301519091166401000000000263ffffffff909316929092179101555b611d5c600983611851565b505060408051828152602081018490527f0553476bf02ef2726e8ce5ced78d63e26e602e4a2257b1f559418e24b4633997910160405180910390a15050565b30611da4610972565b6001600160a01b031614611e375760005b8451811015611e3557306001600160a01b0316858281518110611dda57611dda613dbb565b60200260200101516001600160a01b03161415611e2557611e25838281518110611e0657611e06613dbb565b6020026020010151805190602001206002612f2890919063ffffffff16565b611e2e81613e8a565b9050611db5565b505b5050505050565b611e378585858585612f6d565b30611e54610972565b6001600160a01b031614611e3757600254600f81810b600160801b909204900b1315611e37576000600255611e37565b60006112a985858585611ea260408051602081019091526000815290565b611a07565b600080611eb383612ffa565b90506004816007811115611ec957611ec9613793565b14611ed45792915050565b6000838152600b602052604090205480611eef575092915050565b600a546040517f2ab0f529000000000000000000000000000000000000000000000000000000008152600481018390526001600160a01b0390911690632ab0f5299060240160206040518083038186803b158015611f4c57600080fd5b505afa158015611f60573d6000803e3d6000fd5b505050506040513d601f19601f82011682018060405250810190611f849190613ea5565b15611f93575060079392505050565b600a546040517f584b153e000000000000000000000000000000000000000000000000000000008152600481018390526001600160a01b039091169063584b153e9060240160206040518083038186803b158015611ff057600080fd5b505afa158015612004573d6000803e3d6000fd5b505050506040513d601f19601f820116820180604052508101906120289190613ea5565b15612037575060059392505050565b5060029392505050565b60004382106120925760405162461bcd60e51b815260206004820181905260248201527f436865636b706f696e74733a20626c6f636b206e6f7420796574206d696e65646044820152606401610b03565b600061209d836118c6565b845490915060006120b086848385613106565b905080156120de576120c7866118a1600184613da4565b5464010000000090046001600160e01b03166120e1565b60005b6001600160e01b03169695505050505050565b60045460408051918252602082018390527fc565b045403dc03c2eea82b81a0465edad9e2e7fc4d97e11421c209da93d7a93910160405180910390a1600455565b600061213f611471565b61214e336108b4600143613da4565b10156121c25760405162461bcd60e51b815260206004820152603160248201527f476f7665726e6f723a2070726f706f73657220766f7465732062656c6f77207060448201527f726f706f73616c207468726573686f6c640000000000000000000000000000006064820152608401610b03565b60006121d786868686805190602001206115f0565b905084518651146122345760405162461bcd60e51b815260206004820152602160248201527f476f7665726e6f723a20696e76616c69642070726f706f73616c206c656e67746044820152600d60fb1b6064820152608401610b03565b835186511461228f5760405162461bcd60e51b815260206004820152602160248201527f476f7665726e6f723a20696e76616c69642070726f706f73616c206c656e67746044820152600d60fb1b6064820152608401610b03565b60008651116122e05760405162461bcd60e51b815260206004820152601860248201527f476f7665726e6f723a20656d7074792070726f706f73616c00000000000000006044820152606401610b03565b6000818152600160209081526040918290208251918201909252815467ffffffffffffffff16908190521561237d5760405162461bcd60e51b815260206004820152602160248201527f476f7665726e6f723a2070726f706f73616c20616c726561647920657869737460448201527f73000000000000000000000000000000000000000000000000000000000000006064820152608401610b03565b600061238f61238a610ff8565b613164565b61239843613164565b6123a29190613ec7565b905060006123b161238a61099c565b6123bb9083613ec7565b835467ffffffffffffffff191667ffffffffffffffff8416178455905060018301805467ffffffffffffffff191667ffffffffffffffff83161790557f7d84a6263ae0d98d3329bd7b46bb4e8d6f98cd35a7adb45c274c8b7fd5ebd5e084338b8b8d5167ffffffffffffffff811115612436576124366132e2565b60405190808252806020026020018201604052801561246957816020015b60608152602001906001900390816124545790505b508c88888e60405161248399989796959493929190613ef3565b60405180910390a15091979650505050505050565b6040517f3a46b1a80000000000000000000000000000000000000000000000000000000081526001600160a01b038481166004830152602482018490526000917f000000000000000000000000000000000000000000000000000000000000000090911690633a46b1a89060440160206040518083038186803b15801561251e57600080fd5b505afa158015612532573d6000803e3d6000fd5b505050506040513d601f19601f820116820180604052508101906112bf9190613bee565b600a54604080516001600160a01b03928316815291831660208301527f08f74ea46ef7894f65eabfb5e6e695de773a000b47c529ab559178069b226401910160405180910390a1600a80547fffffffffffffffffffffffff0000000000000000000000000000000000000000166001600160a01b0392909216919091179055565b606083156125e65750816112c2565b6112c283836131e4565b600081116126665760405162461bcd60e51b815260206004820152602760248201527f476f7665726e6f7253657474696e67733a20766f74696e6720706572696f642060448201527f746f6f206c6f77000000000000000000000000000000000000000000000000006064820152608401610b03565b60055460408051918252602082018390527f7e3f7f0708a84de9203036abaa450dccc85ad5ff52f78c170f3edb55cf5e8828910160405180910390a1600555565b60065460408051918252602082018390527fccb45da8d5717e6c4544694297c4ba5cf151d455c9bb0ed4fc7a38411bc05461910160405180910390a1600655565b600060646126f5836110f7565b6040517f8e539e8c000000000000000000000000000000000000000000000000000000008152600481018590527f00000000000000000000000000000000000000000000000000000000000000006001600160a01b031690638e539e8c9060240160206040518083038186803b15801561276e57600080fd5b505afa158015612782573d6000803e3d6000fd5b505050506040513d601f19601f820116820180604052508101906127a69190613bee565b6127b09190613fe5565b6109969190614004565b82546000908190801561290a5760006127d8876118a1600185613da4565b60408051808201909152905463ffffffff8082168084526401000000009092046001600160e01b03166020840152919250908716101561285a5760405162461bcd60e51b815260206004820152601760248201527f436865636b706f696e743a20696e76616c6964206b65790000000000000000006044820152606401610b03565b8563ffffffff16816000015163ffffffff1614156128aa5784612882886118a1600186613da4565b80546001600160e01b03929092166401000000000263ffffffff9092169190911790556128fa565b6040805180820190915263ffffffff80881682526001600160e01b0380881660208085019182528b54600181018d5560008d81529190912094519151909216640100000000029216919091179101555b6020015192508391506129609050565b50506040805180820190915263ffffffff80851682526001600160e01b0380851660208085019182528854600181018a5560008a8152918220955192519093166401000000000291909316179201919091559050815b935093915050565b60006001600160e01b031982167fbf26d8970000000000000000000000000000000000000000000000000000000014806129cb57506001600160e01b031982167f79dd796f00000000000000000000000000000000000000000000000000000000145b806129ff57506001600160e01b031982167f4e2312e000000000000000000000000000000000000000000000000000000000145b8061099657507f01ffc9a7000000000000000000000000000000000000000000000000000000006001600160e01b0319831614610996565b6000306001600160a01b037f000000000000000000000000000000000000000000000000000000000000000016148015612a9057507f000000000000000000000000000000000000000000000000000000000000000046145b15612aba57507f000000000000000000000000000000000000000000000000000000000000000090565b50604080517f00000000000000000000000000000000000000000000000000000000000000006020808301919091527f0000000000000000000000000000000000000000000000000000000000000000828401527f000000000000000000000000000000000000000000000000000000000000000060608301524660808301523060a0808401919091528351808403909101815260c0909201909252805191012090565b6000807f7fffffffffffffffffffffffffffffff5d576e7357a4501ddfe92f46681b20a0831115612b955750600090506003612c19565b6040805160008082526020820180845289905260ff881692820192909252606081018690526080810185905260019060a0016020604051602081039080840390855afa158015612be9573d6000803e3d6000fd5b5050604051601f1901519150506001600160a01b038116612c1257600060019250925050612c19565b9150600090505b94509492505050565b6000816004811115612c3657612c36613793565b1415612c3f5750565b6001816004811115612c5357612c53613793565b1415612ca15760405162461bcd60e51b815260206004820152601860248201527f45434453413a20696e76616c6964207369676e617475726500000000000000006044820152606401610b03565b6002816004811115612cb557612cb5613793565b1415612d035760405162461bcd60e51b815260206004820152601f60248201527f45434453413a20696e76616c6964207369676e6174757265206c656e677468006044820152606401610b03565b6003816004811115612d1757612d17613793565b1415610b605760405162461bcd60e51b815260206004820152602260248201527f45434453413a20696e76616c6964207369676e6174757265202773272076616c60448201527f75650000000000000000000000000000000000000000000000000000000000006064820152608401610b03565b60008581526007602090815260408083206001600160a01b0388168452600381019092529091205460ff1615612e295760405162461bcd60e51b815260206004820152602760248201527f476f7665726e6f72566f74696e6753696d706c653a20766f746520616c72656160448201527f64792063617374000000000000000000000000000000000000000000000000006064820152608401610b03565b6001600160a01b03851660009081526003820160205260408120805460ff1916600117905560ff168460ff161415612e7a5782816000016000828254612e6f9190613d8c565b90915550611e359050565b60ff841660011415612e9a5782816001016000828254612e6f9190613d8c565b60ff841660021415612eba5782816002016000828254612e6f9190613d8c565b60405162461bcd60e51b815260206004820152603560248201527f476f7665726e6f72566f74696e6753696d706c653a20696e76616c696420766160448201527f6c756520666f7220656e756d20566f74655479706500000000000000000000006064820152608401610b03565b8154600160801b90819004600f0b6000818152600180860160205260409091209390935583546fffffffffffffffffffffffffffffffff908116939091011602179055565b600a546040517fe38335e50000000000000000000000000000000000000000000000000000000081526001600160a01b039091169063e38335e5903490612fc1908890889088906000908990600401613cd0565b6000604051808303818588803b158015612fda57600080fd5b505af1158015612fee573d6000803e3d6000fd5b50505050505050505050565b6000818152600160205260408120600281015460ff161561301e5750600792915050565b6002810154610100900460ff16156130395750600292915050565b600061304484610fbf565b9050806130935760405162461bcd60e51b815260206004820152601d60248201527f476f7665726e6f723a20756e6b6e6f776e2070726f706f73616c2069640000006044820152606401610b03565b4381106130a4575060009392505050565b60006130af8561147c565b90504381106130c357506001949350505050565b6130cc8561320e565b80156130eb575060008581526007602052604090208054600190910154115b156130fb57506004949350505050565b506003949350505050565b60005b8183101561315c57600061311d8484613245565b60008781526020902090915063ffffffff86169082015463ffffffff16111561314857809250613156565b613153816001613d8c565b93505b50613109565b509392505050565b600067ffffffffffffffff82111561184d5760405162461bcd60e51b815260206004820152602660248201527f53616665436173743a2076616c756520646f65736e27742066697420696e203660448201527f34206269747300000000000000000000000000000000000000000000000000006064820152608401610b03565b8151156131f45781518083602001fd5b8060405162461bcd60e51b8152600401610b0391906134ae565b6000818152600760205260408120600281015460018201546132309190613d8c565b61323c61093985610fbf565b11159392505050565b60006132546002848418614004565b6112c290848416613d8c565b60006020828403121561327257600080fd5b81356001600160e01b0319811681146112c257600080fd5b803560ff8116811461329b57600080fd5b919050565b60008083601f8401126132b257600080fd5b50813567ffffffffffffffff8111156132ca57600080fd5b60208301915083602082850101111561188057600080fd5b634e487b7160e01b600052604160045260246000fd5b604051601f8201601f1916810167ffffffffffffffff81118282101715613321576133216132e2565b604052919050565b600067ffffffffffffffff831115613343576133436132e2565b613356601f8401601f19166020016132f8565b905082815283838301111561336a57600080fd5b828260208301376000602084830101529392505050565b600082601f83011261339257600080fd5b6112c283833560208501613329565b60008060008060008060008060e0898b0312156133bd57600080fd5b883597506133cd60208a0161328a565b9650604089013567ffffffffffffffff808211156133ea57600080fd5b6133f68c838d016132a0565b909850965060608b013591508082111561340f57600080fd5b5061341c8b828c01613381565b94505061342b60808a0161328a565b925060a0890135915060c089013590509295985092959890939650565b60006020828403121561345a57600080fd5b5035919050565b6000815180845260005b818110156134875760208185018101518683018201520161346b565b81811115613499576000602083870101525b50601f01601f19169290920160200192915050565b6020815260006112c26020830184613461565b6001600160a01b0381168114610b6057600080fd5b600080600080608085870312156134ec57600080fd5b84356134f7816134c1565b93506020850135613507816134c1565b925060408501359150606085013567ffffffffffffffff81111561352a57600080fd5b61353687828801613381565b91505092959194509250565b600067ffffffffffffffff82111561355c5761355c6132e2565b5060051b60200190565b600082601f83011261357757600080fd5b8135602061358c61358783613542565b6132f8565b82815260059290921b840181019181810190868411156135ab57600080fd5b8286015b848110156135cf5780356135c2816134c1565b83529183019183016135af565b509695505050505050565b600082601f8301126135eb57600080fd5b813560206135fb61358783613542565b82815260059290921b8401810191818101908684111561361a57600080fd5b8286015b848110156135cf578035835291830191830161361e565b600082601f83011261364657600080fd5b8135602061365661358783613542565b82815260059290921b8401810191818101908684111561367557600080fd5b8286015b848110156135cf57803567ffffffffffffffff8111156136995760008081fd5b6136a78986838b0101613381565b845250918301918301613679565b600080600080608085870312156136cb57600080fd5b843567ffffffffffffffff808211156136e357600080fd5b6136ef88838901613566565b9550602087013591508082111561370557600080fd5b613711888389016135da565b9450604087013591508082111561372757600080fd5b5061373487828801613635565b949793965093946060013593505050565b600080600080600060a0868803121561375d57600080fd5b8535945061376d6020870161328a565b935061377b6040870161328a565b94979396509394606081013594506080013592915050565b634e487b7160e01b600052602160045260246000fd5b60208101600883106137cb57634e487b7160e01b600052602160045260246000fd5b91905290565b600080604083850312156137e457600080fd5b8235915060208301356137f6816134c1565b809150509250929050565b6000806040838503121561381457600080fd5b823591506138246020840161328a565b90509250929050565b60008060008060006080868803121561384557600080fd5b853594506138556020870161328a565b9350604086013567ffffffffffffffff8082111561387257600080fd5b61387e89838a016132a0565b9095509350606088013591508082111561389757600080fd5b506138a488828901613381565b9150509295509295909350565b600080600080606085870312156138c757600080fd5b843593506138d76020860161328a565b9250604085013567ffffffffffffffff8111156138f357600080fd5b6138ff878288016132a0565b95989497509550505050565b6000806000806080858703121561392157600080fd5b843567ffffffffffffffff8082111561393957600080fd5b61394588838901613566565b9550602087013591508082111561395b57600080fd5b613967888389016135da565b9450604087013591508082111561397d57600080fd5b61398988838901613635565b9350606087013591508082111561399f57600080fd5b508501601f810187136139b157600080fd5b61353687823560208401613329565b6000806000606084860312156139d557600080fd5b83356139e0816134c1565b925060208401359150604084013567ffffffffffffffff811115613a0357600080fd5b613a0f86828701613381565b9150509250925092565b600060208284031215613a2b57600080fd5b81356112c2816134c1565b600080600080600060a08688031215613a4e57600080fd5b8535613a59816134c1565b94506020860135613a69816134c1565b9350604086013567ffffffffffffffff80821115613a8657600080fd5b613a9289838a016135da565b94506060880135915080821115613aa857600080fd5b613ab489838a016135da565b9350608088013591508082111561389757600080fd5b60008060008060608587031215613ae057600080fd5b8435613aeb816134c1565b935060208501359250604085013567ffffffffffffffff8111156138f357600080fd5b60008060408385031215613b2157600080fd5b8235613b2c816134c1565b946020939093013593505050565b600080600080600060a08688031215613b5257600080fd5b8535613b5d816134c1565b94506020860135613b6d816134c1565b93506040860135925060608601359150608086013567ffffffffffffffff811115613b9757600080fd5b6138a488828901613381565b8183823760009101908152919050565b600181811c90821680613bc757607f821691505b60208210811415613be857634e487b7160e01b600052602260045260246000fd5b50919050565b600060208284031215613c0057600080fd5b5051919050565b600081518084526020808501945080840160005b83811015613c405781516001600160a01b031687529582019590820190600101613c1b565b509495945050505050565b600081518084526020808501945080840160005b83811015613c4057815187529582019590820190600101613c5f565b600081518084526020808501808196508360051b8101915082860160005b85811015613cc3578284038952613cb1848351613461565b98850198935090840190600101613c99565b5091979650505050505050565b60a081526000613ce360a0830188613c07565b8281036020840152613cf58188613c4b565b90508281036040840152613d098187613c7b565b60608401959095525050608001529392505050565b60c081526000613d3160c0830189613c07565b8281036020840152613d438189613c4b565b90508281036040840152613d578188613c7b565b60608401969096525050608081019290925260a0909101529392505050565b634e487b7160e01b600052601160045260246000fd5b60008219821115613d9f57613d9f613d76565b500190565b600082821015613db657613db6613d76565b500390565b634e487b7160e01b600052603260045260246000fd5b608081526000613de46080830187613c07565b8281036020840152613df68187613c4b565b90508281036040840152613e0a8186613c7b565b91505082606083015295945050505050565b84815260ff841660208201528260408201526080606082015260006112916080830184613461565b85815260ff8516602082015283604082015260a060608201526000613e6c60a0830185613461565b8281036080840152613e7e8185613461565b98975050505050505050565b6000600019821415613e9e57613e9e613d76565b5060010190565b600060208284031215613eb757600080fd5b815180151581146112c257600080fd5b600067ffffffffffffffff808316818516808303821115613eea57613eea613d76565b01949350505050565b60006101208b835260206001600160a01b038c1681850152816040850152613f1d8285018c613c07565b91508382036060850152613f31828b613c4b565b915083820360808501528189518084528284019150828160051b850101838c0160005b83811015613f8257601f19878403018552613f70838351613461565b94860194925090850190600101613f54565b505086810360a0880152613f96818c613c7b565b945050505050613fb260c084018767ffffffffffffffff169052565b67ffffffffffffffff851660e0840152828103610100840152613fd58185613461565b9c9b505050505050505050505050565b6000816000190483118215151615613fff57613fff613d76565b500290565b60008261402157634e487b7160e01b600052601260045260246000fd5b50049056fe476f7665726e6f723a2072656c617920726576657274656420776974686f7574206d657373616765a264697066735822122051ef242a8c1acc2685ce1a59e20ac68e40c471cc083696508b777e5465c562f664736f6c63430008090033",
  "linkReferences": {},
  "deployedLinkReferences": {}
}