{
  "_format": "hh-sol-artifact-1",
  "contractName": "GovernanceToken",
  "sourceName": "contracts/GovernanceToken.sol",
  "abi": [
    {
      "inputs": [],
      "stateMutability": "nonpayable",
      "type": "constructor"
    },
    {
      "anonymous": false,
      "inputs": [
        {
          "indexed": true,
          "internalType": "address",
          "name": "owner",
          "type": "address"
        },
        {
          "indexed": true,
          "internalType": "address",
          "name": "spender",
          "type": "address"
        },
        {
          "indexed": false,
          "internalType": "uint256",
          "name": "value",
          "type": "uint256"
        }
      ],
      "name": "Approval",
      "type": "event"
    },
    {
      "anonymous": false,
      "inputs": [
        {
          "indexed": true,
          "internalType": "address",
          "name": "delegator",
          "type": "address"
        },
        {
          "indexed": true,
          "internalType": "address",
          "name": "fromDelegate",
          "type": "address"
        },
        {
          "indexed": true,
          "internalType": "address",
          "name": "toDelegate",
          "type": "address"
        }
      ],
      "name": "DelegateChanged",
      "type": "event"
    },
    {
      "anonymous": false,
      "inputs": [
        {
          "indexed": true,
          "internalType": "address",
          "name": "delegate",
          "type": "address"
        },
        {
          "indexed": false,
          "internalType": "uint256",
          "name": "previousBalance",
          "type": "uint256"
        },
        {
          "indexed": false,
          "internalType": "uint256",
          "name": "newBalance",
          "type": "uint256"
        }
      ],
      "name": "DelegateVotesChanged",
      "type": "event"
    },
    {
      "anonymous": false,
      "inputs": [
        {
          "indexed": true,
          "internalType": "address",
          "name": "from",
          "type": "address"
        },
        {
          "indexed": true,
          "internalType": "address",
          "name": "to",
          "type": "address"
        },
        {
          "indexed": false,
          "internalType": "uint256",
          "name": "value",
          "type": "uint256"
        }
      ],
      "name": "Transfer",
      "type": "event"
    },
    {
      "inputs": [],
      "name": "DOMAIN_SEPARATOR",
      "outputs": [
        {
          "internalType": "bytes32",
          "name": "",
          "type": "bytes32"
        }
      ],
      "stateMutability": "view",
      "type": "function"
    },
    {
      "inputs": [
        {
          "internalType": "address",
          "name": "owner",
          "type": "address"
        },
        {
          "internalType": "address",
          "name": "spender",
          "type": "address"
        }
      ],
      "name": "allowance",
      "outputs": [
        {
          "internalType": "uint256",
          "name": "",
          "type": "uint256"
        }
      ],
      "stateMutability": "view",
      "type": "function"
    },
    {
      "inputs": [
        {
          "internalType": "address",
          "name": "spender",
          "type": "address"
        },
        {
          "internalType": "uint256",
          "name": "amount",
          "type": "uint256"
        }
      ],
      "name": "approve",
      "outputs": [
        {
          "internalType": "bool",
          "name": "",
          "type": "bool"
        }
      ],
      "stateMutability": "nonpayable",
      "type": "function"
    },
    {
      "inputs": [
        {
          "internalType": "address",
          "name": "account",
          "type": "address"
        }
      ],
      "name": "balanceOf",
      "outputs": [
        {
          "internalType": "uint256",
          "name": "",
          "type": "uint256"
        }
      ],
      "stateMutability": "view",
      "type": "function"
    },
    {
      "inputs": [
        {
          "internalType": "address",
          "name": "account",
          "type": "address"
        },
        {
          "internalType": "uint32",
          "name": "pos",
          "type": "uint32"
        }
      ],
      "name": "checkpoints",
      "outputs": [
        {
          "components": [
            {
              "internalType": "uint32",
              "name": "fromBlock",
              "type": "uint32"
            },
            {
              "internalType": "uint224",
              "name": "votes",
              "type": "uint224"
            }
          ],
          "internalType": "struct ERC20Votes.Checkpoint",
          "name": "",
          "type": "tuple"
        }
      ],
      "stateMutability": "view",
      "type": "function"
    },
    {
      "inputs": [],
      "name": "decimals",
      "outputs": [
        {
          "internalType": "uint8",
          "name": "",
          "type": "uint8"
        }
      ],
      "stateMutability": "view",
      "type": "function"
    },
    {
      "inputs": [
        {
          "internalType": "address",
          "name": "spender",
          "type": "address"
        },
        {
          "internalType": "uint256",
          "name": "subtractedValue",
          "type": "uint256"
        }
      ],
      "name": "decreaseAllowance",
      "outputs": [
        {
          "internalType": "bool",
          "name": "",
          "type": "bool"
        }
      ],
      "stateMutability": "nonpayable",
      "type": "function"
    },
    {
      "inputs": [
        {
          "internalType": "address",
          "name": "delegatee",
          "type": "address"
        }
      ],
      "name": "delegate",
      "outputs": [],
      "stateMutability": "nonpayable",
      "type": "function"
    },
    {
      "inputs": [
        {
          "internalType": "address",
          "name": "delegatee",
          "type": "address"
        },
        {
          "internalType": "uint256",
          "name": "nonce",
          "type": "uint256"
        },
        {
          "internalType": "uint256",
          "name": "expiry",
          "type": "uint256"
        },
        {
          "internalType": "uint8",
          "name": "v",
          "type": "uint8"
        },
        {
          "internalType": "bytes32",
          "name": "r",
          "type": "bytes32"
        },
        {
          "internalType": "bytes32",
          "name": "s",
          "type": "bytes32"
        }
      ],
      "name": "delegateBySig",
      "outputs": [],
      "stateMutability": "nonpayable",
      "type": "function"
    },
    {
      "inputs": [
        {
          "internalType": "address",
          "name": "account",
          "type": "address"
        }
      ],
      "name": "delegates",
      "outputs": [
        {
          "internalType": "address",
          "name": "",
          "type": "address"
        }
      ],
      "stateMutability": "view",
      "type": "function"
    },
    {
      "inputs": [
        {
          "internalType": "uint256",
          "name": "blockNumber",
          "type": "uint256"
        }
      ],
      "name": "getPastTotalSupply",
      "outputs": [
        {
          "internalType": "uint256",
          "name": "",
          "type": "uint256"
        }
      ],
      "stateMutability": "view",
      "type": "function"
    },
    {
      "inputs": [
        {
          "internalType": "address",
          "name": "account",
          "type": "address"
        },
        {
          "internalType": "uint256",
          "name": "blockNumber",
          "type": "uint256"
        }
      ],
      "name": "getPastVotes",
      "outputs": [
        {
          "internalType": "uint256",
          "name": "",
          "type": "uint256"
        }
      ],
      "stateMutability": "view",
      "type": "function"
    },
    {
      "inputs": [
        {
          "internalType": "address",
          "name": "account",
          "type": "address"
        }
      ],
      "name": "getVotes",
      "outputs": [
        {
          "internalType": "uint256",
          "name": "",
          "type": "uint256"
        }
      ],
      "stateMutability": "view",
      "type": "function"
    },
    {
      "inputs": [
        {
          "internalType": "address",
          "name": "spender",
          "type": "address"
        },
        {
          "internalType": "uint256",
          "name": "addedValue",
          "type": "uint256"
        }
      ],
      "name": "increaseAllowance",
      "outputs": [
        {
          "internalType": "bool",
          "name": "",
          "type": "bool"
        }
      ],
      "stateMutability": "nonpayable",
      "type": "function"
    },
    {
      "inputs": [],
      "name": "name",
      "outputs": [
        {
          "internalType": "string",
          "name": "",
          "type": "string"
        }
      ],
      "stateMutability": "view",
      "type": "function"
    },
    {
      "inputs": [
        {
          "internalType": "address",
          "name": "owner",
          "type": "address"
        }
      ],
      "name": "nonces",
      "outputs": [
        {
          "internalType": "uint256",
          "name": "",
          "type": "uint256"
        }
      ],
      "stateMutability": "view",
      "type": "function"
    },
    {
      "inputs": [
        {
          "internalType": "address",
          "name": "account",
          "type": "address"
        }
      ],
      "name": "numCheckpoints",
      "outputs": [
        {
          "internalType": "uint32",
          "name": "",
          "type": "uint32"
        }
      ],
      "stateMutability": "view",
      "type": "function"
    },
    {
      "inputs": [
        {
          "internalType": "address",
          "name": "owner",
          "type": "address"
        },
        {
          "internalType": "address",
          "name": "spender",
          "type": "address"
        },
        {
          "internalType": "uint256",
          "name": "value",
          "type": "uint256"
        },
        {
          "internalType": "uint256",
          "name": "deadline",
          "type": "uint256"
        },
        {
          "internalType": "uint8",
          "name": "v",
          "type": "uint8"
        },
        {
          "internalType": "bytes32",
          "name": "r",
          "type": "bytes32"
        },
        {
          "internalType": "bytes32",
          "name": "s",
          "type": "bytes32"
        }
      ],
      "name": "permit",
      "outputs": [],
      "stateMutability": "nonpayable",
      "type": "function"
    },
    {
      "inputs": [],
      "name": "s_maxSupply",
      "outputs": [
        {
          "internalType": "uint256",
          "name": "",
          "type": "uint256"
        }
      ],
      "stateMutability": "view",
      "type": "function"
    },
    {
      "inputs": [],
      "name": "symbol",
      "outputs": [
        {
          "internalType": "string",
          "name": "",
          "type": "string"
        }
      ],
      "stateMutability": "view",
      "type": "function"
    },
    {
      "inputs": [],
      "name": "totalSupply",
      "outputs": [
        {
          "internalType": "uint256",
          "name": "",
          "type": "uint256"
        }
      ],
      "stateMutability": "view",
      "type": "function"
    },
    {
      "inputs": [
        {
          "internalType": "address",
          "name": "to",
          "type": "address"
        },
        {
          "internalType": "uint256",
          "name": "amount",
          "type": "uint256"
        }
      ],
      "name": "transfer",
      "outputs": [
        {
          "internalType": "bool",
          "name": "",
          "type": "bool"
        }
      ],
      "stateMutability": "nonpayable",
      "type": "function"
    },
    {
      "inputs": [
        {
          "internalType": "address",
          "name": "from",
          "type": "address"
        },
        {
          "internalType": "address",
          "name": "to",
          "type": "address"
        },
        {
          "internalType": "uint256",
          "name": "amount",
          "type": "uint256"
        }
      ],
      "name": "transferFrom",
      "outputs": [
        {
          "internalType": "bool",
          "name": "",
          "type": "bool"
        }
      ],
      "stateMutability": "nonpayable",
      "type": "function"
    }
  ],
  "bytecode": "0x61014060405269152d02c7e14af6800000600a553480156200002057600080fd5b506040518060400160405280600f81526020016e23b7bb32b93730b731b2aa37b5b2b760891b81525080604051806040016040528060018152602001603160f81b8152506040518060400160405280600f81526020016e23b7bb32b93730b731b2aa37b5b2b760891b8152506040518060400160405280600281526020016111d560f21b8152508160039080519060200190620000bf9291906200073a565b508051620000d59060049060208401906200073a565b5050825160209384012082519284019290922060e08390526101008190524660a0818152604080517f8b73c3c69bb8fe3d512ecc4cf759cc79239f7b179b0ffacaa9a75d522b39400f818901819052818301979097526060810194909452608080850193909352308483018190528151808603909301835260c094850190915281519190960120905292909252610120525050600a54620001789033906200017e565b6200085e565b6200019582826200019960201b62000aa11760201c565b5050565b620001b082826200025060201b62000b3e1760201c565b6001600160e01b03620001c46200031d8216565b1115620002315760405162461bcd60e51b815260206004820152603060248201527f4552433230566f7465733a20746f74616c20737570706c79207269736b73206f60448201526f766572666c6f77696e6720766f74657360801b60648201526084015b60405180910390fd5b6200024a600962000c096200032360201b178362000338565b50505050565b6001600160a01b038216620002a85760405162461bcd60e51b815260206004820152601f60248201527f45524332303a206d696e7420746f20746865207a65726f206164647265737300604482015260640162000228565b8060026000828254620002bc9190620007ec565b90915550506001600160a01b038216600081815260208181526040808320805486019055518481527fddf252ad1be2c89b69c2b068fc378daa952ba7f163c4a11628f55a4df523b3ef910160405180910390a36200019560008383620004cf565b60025490565b6000620003318284620007ec565b9392505050565b82546000908190818115620003985762000367876200035960018562000807565b600091825260209091200190565b60408051808201909152905463ffffffff8116825264010000000090046001600160e01b03166020820152620003ad565b60408051808201909152600080825260208201525b905080602001516001600160e01b03169350620003cb84868860201c565b9250600082118015620003e45750805163ffffffff1643145b156200043b576200040083620004e760201b62000c151760201c565b62000412886200035960018662000807565b80546001600160e01b03929092166401000000000263ffffffff909216919091179055620004c0565b8660405180604001604052806200045d436200055660201b62000c981760201c565b63ffffffff1681526020016200047e86620004e760201b62000c151760201c565b6001600160e01b0390811690915282546001810184556000938452602093849020835194909301519091166401000000000263ffffffff909316929092179101555b5050935093915050565b505050565b620004ca838383620005bd60201b62000d141760201c565b60006001600160e01b03821115620005525760405162461bcd60e51b815260206004820152602760248201527f53616665436173743a2076616c756520646f65736e27742066697420696e20326044820152663234206269747360c81b606482015260840162000228565b5090565b600063ffffffff821115620005525760405162461bcd60e51b815260206004820152602660248201527f53616665436173743a2076616c756520646f65736e27742066697420696e203360448201526532206269747360d01b606482015260840162000228565b620005d5838383620004ca60201b62000d461760201c565b6001600160a01b03838116600090815260076020526040808220548584168352912054620004ca92918216911683818314801590620006145750600081115b15620004ca576001600160a01b03831615620006a1576001600160a01b0383166000908152600860209081526040822082916200065e91906200072c901b62000d4b178562000338565b91509150846001600160a01b03166000805160206200271c833981519152838360405162000696929190918252602082015260400190565b60405180910390a250505b6001600160a01b03821615620004ca576001600160a01b038216600090815260086020908152604082208291620006e5919062000323901b62000c09178562000338565b91509150836001600160a01b03166000805160206200271c83398151915283836040516200071d929190918252602082015260400190565b60405180910390a25050505050565b600062000331828462000807565b828054620007489062000821565b90600052602060002090601f0160209004810192826200076c5760008555620007b7565b82601f106200078757805160ff1916838001178555620007b7565b82800160010185558215620007b7579182015b82811115620007b75782518255916020019190600101906200079a565b50620005529291505b80821115620005525760008155600101620007c0565b634e487b7160e01b600052601160045260246000fd5b60008219821115620008025762000802620007d6565b500190565b6000828210156200081c576200081c620007d6565b500390565b600181811c908216806200083657607f821691505b602082108114156200085857634e487b7160e01b600052602260045260246000fd5b50919050565b60805160a05160c05160e0516101005161012051611e6e620008ae60003960006111b801526000611207015260006111e20152600061113b015260006111650152600061118f0152611e6e6000f3fe608060405234801561001057600080fd5b506004361061018d5760003560e01c80636fcfff45116100e3578063a457c2d71161008c578063d505accf11610066578063d505accf14610362578063dd62ed3e14610375578063f1127ed8146103ae57600080fd5b8063a457c2d714610329578063a9059cbb1461033c578063c3cda5201461034f57600080fd5b80638e539e8c116100bd5780638e539e8c146102fb57806395d89b411461030e5780639ab24eb01461031657600080fd5b80636fcfff451461029757806370a08231146102bf5780637ecebe00146102e857600080fd5b80633644e51511610145578063587cde1e1161011f578063587cde1e146102355780635c19a95c146102795780635d6418471461028e57600080fd5b80633644e51514610207578063395093511461020f5780633a46b1a81461022257600080fd5b806318160ddd1161017657806318160ddd146101d357806323b872dd146101e5578063313ce567146101f857600080fd5b806306fdde0314610192578063095ea7b3146101b0575b600080fd5b61019a6103eb565b6040516101a79190611b09565b60405180910390f35b6101c36101be366004611b7a565b61047d565b60405190151581526020016101a7565b6002545b6040519081526020016101a7565b6101c36101f3366004611ba4565b610495565b604051601281526020016101a7565b6101d76104b9565b6101c361021d366004611b7a565b6104c8565b6101d7610230366004611b7a565b610507565b610261610243366004611be0565b6001600160a01b039081166000908152600760205260409020541690565b6040516001600160a01b0390911681526020016101a7565b61028c610287366004611be0565b610586565b005b6101d7600a5481565b6102aa6102a5366004611be0565b610593565b60405163ffffffff90911681526020016101a7565b6101d76102cd366004611be0565b6001600160a01b031660009081526020819052604090205490565b6101d76102f6366004611be0565b6105bb565b6101d7610309366004611bfb565b6105d9565b61019a610635565b6101d7610324366004611be0565b610644565b6101c3610337366004611b7a565b6106cb565b6101c361034a366004611b7a565b610775565b61028c61035d366004611c25565b610783565b61028c610370366004611c7d565b6108b9565b6101d7610383366004611ce7565b6001600160a01b03918216600090815260016020908152604080832093909416825291909152205490565b6103c16103bc366004611d1a565b610a1d565b60408051825163ffffffff1681526020928301516001600160e01b031692810192909252016101a7565b6060600380546103fa90611d5a565b80601f016020809104026020016040519081016040528092919081815260200182805461042690611d5a565b80156104735780601f1061044857610100808354040283529160200191610473565b820191906000526020600020905b81548152906001019060200180831161045657829003601f168201915b5050505050905090565b60003361048b818585610d57565b5060019392505050565b6000336104a3858285610eaf565b6104ae858585610f3b565b506001949350505050565b60006104c361112e565b905090565b3360008181526001602090815260408083206001600160a01b038716845290915281205490919061048b9082908690610502908790611da5565b610d57565b600043821061055d5760405162461bcd60e51b815260206004820152601f60248201527f4552433230566f7465733a20626c6f636b206e6f7420796574206d696e65640060448201526064015b60405180910390fd5b6001600160a01b038316600090815260086020526040902061057f9083611255565b9392505050565b610590338261134c565b50565b6001600160a01b0381166000908152600860205260408120546105b590610c98565b92915050565b6001600160a01b0381166000908152600560205260408120546105b5565b600043821061062a5760405162461bcd60e51b815260206004820152601f60248201527f4552433230566f7465733a20626c6f636b206e6f7420796574206d696e6564006044820152606401610554565b6105b5600983611255565b6060600480546103fa90611d5a565b6001600160a01b03811660009081526008602052604081205480156106b8576001600160a01b0383166000908152600860205260409020610686600183611dbd565b8154811061069657610696611dd4565b60009182526020909120015464010000000090046001600160e01b03166106bb565b60005b6001600160e01b03169392505050565b3360008181526001602090815260408083206001600160a01b0387168452909152812054909190838110156107685760405162461bcd60e51b815260206004820152602560248201527f45524332303a2064656372656173656420616c6c6f77616e63652062656c6f7760448201527f207a65726f0000000000000000000000000000000000000000000000000000006064820152608401610554565b6104ae8286868403610d57565b60003361048b818585610f3b565b834211156107d35760405162461bcd60e51b815260206004820152601d60248201527f4552433230566f7465733a207369676e617475726520657870697265640000006044820152606401610554565b604080517fe48329057bfd03d55e49b547132e39cffd9c1820ad7b9d4c5307691425d15adf60208201526001600160a01b03881691810191909152606081018690526080810185905260009061084d906108459060a001604051602081830303815290604052805190602001206113dd565b858585611446565b90506108588161146e565b86146108a65760405162461bcd60e51b815260206004820152601960248201527f4552433230566f7465733a20696e76616c6964206e6f6e6365000000000000006044820152606401610554565b6108b0818861134c565b50505050505050565b834211156109095760405162461bcd60e51b815260206004820152601d60248201527f45524332305065726d69743a206578706972656420646561646c696e650000006044820152606401610554565b60007f6e71edae12b1b97f4d1f60370fef10105fa2faae0126114a169c64845d6126c98888886109388c61146e565b6040805160208101969096526001600160a01b0394851690860152929091166060840152608083015260a082015260c0810186905260e0016040516020818303038152906040528051906020012090506000610993826113dd565b905060006109a382878787611446565b9050896001600160a01b0316816001600160a01b031614610a065760405162461bcd60e51b815260206004820152601e60248201527f45524332305065726d69743a20696e76616c6964207369676e617475726500006044820152606401610554565b610a118a8a8a610d57565b50505050505050505050565b60408051808201909152600080825260208201526001600160a01b0383166000908152600860205260409020805463ffffffff8416908110610a6157610a61611dd4565b60009182526020918290206040805180820190915291015463ffffffff8116825264010000000090046001600160e01b0316918101919091529392505050565b610aab8282610b3e565b6002546001600160e01b031015610b2a5760405162461bcd60e51b815260206004820152603060248201527f4552433230566f7465733a20746f74616c20737570706c79207269736b73206f60448201527f766572666c6f77696e6720766f746573000000000000000000000000000000006064820152608401610554565b610b386009610c0983611496565b50505050565b6001600160a01b038216610b945760405162461bcd60e51b815260206004820152601f60248201527f45524332303a206d696e7420746f20746865207a65726f2061646472657373006044820152606401610554565b8060026000828254610ba69190611da5565b90915550506001600160a01b038216600081815260208181526040808320805486019055518481527fddf252ad1be2c89b69c2b068fc378daa952ba7f163c4a11628f55a4df523b3ef910160405180910390a3610c05600083836115ea565b5050565b600061057f8284611da5565b60006001600160e01b03821115610c945760405162461bcd60e51b815260206004820152602760248201527f53616665436173743a2076616c756520646f65736e27742066697420696e203260448201527f32342062697473000000000000000000000000000000000000000000000000006064820152608401610554565b5090565b600063ffffffff821115610c945760405162461bcd60e51b815260206004820152602660248201527f53616665436173743a2076616c756520646f65736e27742066697420696e203360448201527f32206269747300000000000000000000000000000000000000000000000000006064820152608401610554565b6001600160a01b03838116600090815260076020526040808220548584168352912054610d46929182169116836115f5565b505050565b600061057f8284611dbd565b6001600160a01b038316610dd25760405162461bcd60e51b8152602060048201526024808201527f45524332303a20617070726f76652066726f6d20746865207a65726f2061646460448201527f72657373000000000000000000000000000000000000000000000000000000006064820152608401610554565b6001600160a01b038216610e4e5760405162461bcd60e51b815260206004820152602260248201527f45524332303a20617070726f766520746f20746865207a65726f20616464726560448201527f73730000000000000000000000000000000000000000000000000000000000006064820152608401610554565b6001600160a01b0383811660008181526001602090815260408083209487168084529482529182902085905590518481527f8c5be1e5ebec7d5bd14f71427d1e84f3dd0314c0f7b2291e5b200ac8c7c3b925910160405180910390a3505050565b6001600160a01b038381166000908152600160209081526040808320938616835292905220546000198114610b385781811015610f2e5760405162461bcd60e51b815260206004820152601d60248201527f45524332303a20696e73756666696369656e7420616c6c6f77616e63650000006044820152606401610554565b610b388484848403610d57565b6001600160a01b038316610fb75760405162461bcd60e51b815260206004820152602560248201527f45524332303a207472616e736665722066726f6d20746865207a65726f20616460448201527f64726573730000000000000000000000000000000000000000000000000000006064820152608401610554565b6001600160a01b0382166110335760405162461bcd60e51b815260206004820152602360248201527f45524332303a207472616e7366657220746f20746865207a65726f206164647260448201527f65737300000000000000000000000000000000000000000000000000000000006064820152608401610554565b6001600160a01b038316600090815260208190526040902054818110156110c25760405162461bcd60e51b815260206004820152602660248201527f45524332303a207472616e7366657220616d6f756e742065786365656473206260448201527f616c616e636500000000000000000000000000000000000000000000000000006064820152608401610554565b6001600160a01b03848116600081815260208181526040808320878703905593871680835291849020805487019055925185815290927fddf252ad1be2c89b69c2b068fc378daa952ba7f163c4a11628f55a4df523b3ef910160405180910390a3610b388484846115ea565b6000306001600160a01b037f00000000000000000000000000000000000000000000000000000000000000001614801561118757507f000000000000000000000000000000000000000000000000000000000000000046145b156111b157507f000000000000000000000000000000000000000000000000000000000000000090565b50604080517f00000000000000000000000000000000000000000000000000000000000000006020808301919091527f0000000000000000000000000000000000000000000000000000000000000000828401527f000000000000000000000000000000000000000000000000000000000000000060608301524660808301523060a0808401919091528351808403909101815260c0909201909252805191012090565b8154600090818160058111156112af57600061127084611732565b61127a9085611dbd565b600088815260209020909150869082015463ffffffff16111561129f578091506112ad565b6112aa816001611da5565b92505b505b808210156112fc5760006112c38383611817565b600088815260209020909150869082015463ffffffff1611156112e8578091506112f6565b6112f3816001611da5565b92505b506112af565b80156113365761131f86611311600184611dbd565b600091825260209091200190565b5464010000000090046001600160e01b0316611339565b60005b6001600160e01b03169695505050505050565b6001600160a01b038281166000818152600760208181526040808420805485845282862054949093528787167fffffffffffffffffffffffff00000000000000000000000000000000000000008416811790915590519190951694919391928592917f3134e8a2e6d97e929a7e54011ea5485d7d196dd5f0ba4d4ef95803e8e3fc257f9190a4610b388284836115f5565b60006105b56113ea61112e565b836040517f19010000000000000000000000000000000000000000000000000000000000006020820152602281018390526042810182905260009060620160405160208183030381529060405280519060200120905092915050565b600080600061145787878787611832565b91509150611464816118f6565b5095945050505050565b6001600160a01b03811660009081526005602052604090208054600181018255905b50919050565b825460009081908181156114e3576114b387611311600185611dbd565b60408051808201909152905463ffffffff8116825264010000000090046001600160e01b031660208201526114f8565b60408051808201909152600080825260208201525b905080602001516001600160e01b0316935061151884868863ffffffff16565b92506000821180156115305750805163ffffffff1643145b156115755761153e83610c15565b61154d88611311600186611dbd565b80546001600160e01b03929092166401000000000263ffffffff9092169190911790556115e0565b86604051806040016040528061158a43610c98565b63ffffffff16815260200161159e86610c15565b6001600160e01b0390811690915282546001810184556000938452602093849020835194909301519091166401000000000263ffffffff909316929092179101555b5050935093915050565b610d46838383610d14565b816001600160a01b0316836001600160a01b0316141580156116175750600081115b15610d46576001600160a01b038316156116a5576001600160a01b0383166000908152600860205260408120819061165290610d4b85611496565b91509150846001600160a01b03167fdec2bacdd2f05b59de34da9b523dff8be42e5e38e818c82fdb0bae774387a724838360405161169a929190918252602082015260400190565b60405180910390a250505b6001600160a01b03821615610d46576001600160a01b038216600090815260086020526040812081906116db90610c0985611496565b91509150836001600160a01b03167fdec2bacdd2f05b59de34da9b523dff8be42e5e38e818c82fdb0bae774387a7248383604051611723929190918252602082015260400190565b60405180910390a25050505050565b60008161174157506000919050565b6000600161174e84611a5f565b901c6001901b9050600181848161176757611767611dea565b048201901c9050600181848161177f5761177f611dea565b048201901c9050600181848161179757611797611dea565b048201901c905060018184816117af576117af611dea565b048201901c905060018184816117c7576117c7611dea565b048201901c905060018184816117df576117df611dea565b048201901c905060018184816117f7576117f7611dea565b048201901c905061057f8182858161181157611811611dea565b04611af3565b60006118266002848418611e00565b61057f90848416611da5565b6000807f7fffffffffffffffffffffffffffffff5d576e7357a4501ddfe92f46681b20a083111561186957506000905060036118ed565b6040805160008082526020820180845289905260ff881692820192909252606081018690526080810185905260019060a0016020604051602081039080840390855afa1580156118bd573d6000803e3d6000fd5b5050604051601f1901519150506001600160a01b0381166118e6576000600192509250506118ed565b9150600090505b94509492505050565b600081600481111561190a5761190a611e22565b14156119135750565b600181600481111561192757611927611e22565b14156119755760405162461bcd60e51b815260206004820152601860248201527f45434453413a20696e76616c6964207369676e617475726500000000000000006044820152606401610554565b600281600481111561198957611989611e22565b14156119d75760405162461bcd60e51b815260206004820152601f60248201527f45434453413a20696e76616c6964207369676e6174757265206c656e677468006044820152606401610554565b60038160048111156119eb576119eb611e22565b14156105905760405162461bcd60e51b815260206004820152602260248201527f45434453413a20696e76616c6964207369676e6174757265202773272076616c60448201527f75650000000000000000000000000000000000000000000000000000000000006064820152608401610554565b600080608083901c15611a7457608092831c92015b604083901c15611a8657604092831c92015b602083901c15611a9857602092831c92015b601083901c15611aaa57601092831c92015b600883901c15611abc57600892831c92015b600483901c15611ace57600492831c92015b600283901c15611ae057600292831c92015b600183901c156105b55760010192915050565b6000818310611b02578161057f565b5090919050565b600060208083528351808285015260005b81811015611b3657858101830151858201604001528201611b1a565b81811115611b48576000604083870101525b50601f01601f1916929092016040019392505050565b80356001600160a01b0381168114611b7557600080fd5b919050565b60008060408385031215611b8d57600080fd5b611b9683611b5e565b946020939093013593505050565b600080600060608486031215611bb957600080fd5b611bc284611b5e565b9250611bd060208501611b5e565b9150604084013590509250925092565b600060208284031215611bf257600080fd5b61057f82611b5e565b600060208284031215611c0d57600080fd5b5035919050565b803560ff81168114611b7557600080fd5b60008060008060008060c08789031215611c3e57600080fd5b611c4787611b5e565b95506020870135945060408701359350611c6360608801611c14565b92506080870135915060a087013590509295509295509295565b600080600080600080600060e0888a031215611c9857600080fd5b611ca188611b5e565b9650611caf60208901611b5e565b95506040880135945060608801359350611ccb60808901611c14565b925060a0880135915060c0880135905092959891949750929550565b60008060408385031215611cfa57600080fd5b611d0383611b5e565b9150611d1160208401611b5e565b90509250929050565b60008060408385031215611d2d57600080fd5b611d3683611b5e565b9150602083013563ffffffff81168114611d4f57600080fd5b809150509250929050565b600181811c90821680611d6e57607f821691505b6020821081141561149057634e487b7160e01b600052602260045260246000fd5b634e487b7160e01b600052601160045260246000fd5b60008219821115611db857611db8611d8f565b500190565b600082821015611dcf57611dcf611d8f565b500390565b634e487b7160e01b600052603260045260246000fd5b634e487b7160e01b600052601260045260246000fd5b600082611e1d57634e487b7160e01b600052601260045260246000fd5b500490565b634e487b7160e01b600052602160045260246000fdfea2646970667358221220dfd94ef1d9ff0d441bdabbfd00cd96768a9b7f0222f4e16532c877640edf9aef64736f6c63430008090033dec2bacdd2f05b59de34da9b523dff8be42e5e38e818c82fdb0bae774387a724",
  "linkReferences": {},
  "deployedLinkReferences": {}
}